{
  "_format": "hh-sol-artifact-1",
  "contractName": "DeFiLoan",
  "sourceName": "contracts/DeFiLoan.sol",
  "abi": [
    {
      "inputs": [
        {
          "internalType": "address",
          "name": "_priceFeed",
          "type": "address"
        }
      ],
      "stateMutability": "nonpayable",
      "type": "constructor"
    },
    {
      "inputs": [],
      "name": "COLLATERAL_RATIO",
      "outputs": [
        {
          "internalType": "uint256",
          "name": "",
          "type": "uint256"
        }
      ],
      "stateMutability": "view",
      "type": "function"
    },
    {
      "inputs": [],
      "name": "LIQUIDATION_THRESHOLD",
      "outputs": [
        {
          "internalType": "uint256",
          "name": "",
          "type": "uint256"
        }
      ],
      "stateMutability": "view",
      "type": "function"
    },
    {
      "inputs": [
        {
          "internalType": "uint256",
          "name": "amount",
          "type": "uint256"
        }
      ],
      "name": "borrow",
      "outputs": [],
      "stateMutability": "nonpayable",
      "type": "function"
    },
    {
      "inputs": [
        {
          "internalType": "address",
          "name": "",
          "type": "address"
        }
      ],
      "name": "borrowed",
      "outputs": [
        {
          "internalType": "uint256",
          "name": "",
          "type": "uint256"
        }
      ],
      "stateMutability": "view",
      "type": "function"
    },
    {
      "inputs": [
        {
          "internalType": "address",
          "name": "",
          "type": "address"
        }
      ],
      "name": "collateral",
      "outputs": [
        {
          "internalType": "uint256",
          "name": "",
          "type": "uint256"
        }
      ],
      "stateMutability": "view",
      "type": "function"
    },
    {
      "inputs": [],
      "name": "depositCollateral",
      "outputs": [],
      "stateMutability": "payable",
      "type": "function"
    },
    {
      "inputs": [],
      "name": "getEthPrice",
      "outputs": [
        {
          "internalType": "uint256",
          "name": "",
          "type": "uint256"
        }
      ],
      "stateMutability": "view",
      "type": "function"
    },
    {
      "inputs": [
        {
          "internalType": "address",
          "name": "user",
          "type": "address"
        }
      ],
      "name": "getUserStatus",
      "outputs": [
        {
          "internalType": "uint256",
          "name": "",
          "type": "uint256"
        },
        {
          "internalType": "uint256",
          "name": "",
          "type": "uint256"
        },
        {
          "internalType": "uint256",
          "name": "",
          "type": "uint256"
        }
      ],
      "stateMutability": "view",
      "type": "function"
    },
    {
      "inputs": [
        {
          "internalType": "address",
          "name": "user",
          "type": "address"
        }
      ],
      "name": "liquidate",
      "outputs": [],
      "stateMutability": "nonpayable",
      "type": "function"
    },
    {
      "inputs": [
        {
          "internalType": "uint256",
          "name": "amount",
          "type": "uint256"
        }
      ],
      "name": "repay",
      "outputs": [],
      "stateMutability": "nonpayable",
      "type": "function"
    }
  ],
  "bytecode": "0x608060405234801561001057600080fd5b50604051611090380380611090833981810160405281019061003291906100db565b806000806101000a81548173ffffffffffffffffffffffffffffffffffffffff021916908373ffffffffffffffffffffffffffffffffffffffff16021790555050610108565b600080fd5b600073ffffffffffffffffffffffffffffffffffffffff82169050919050565b60006100a88261007d565b9050919050565b6100b88161009d565b81146100c357600080fd5b50565b6000815190506100d5816100af565b92915050565b6000602082840312156100f1576100f0610078565b5b60006100ff848285016100c6565b91505092915050565b610f79806101176000396000f3fe6080604052600436106100915760003560e01c806390a8ae9b1161005957806390a8ae9b1461015a578063a5fdc5de14610185578063c5ebeaec146101c2578063d9e69a05146101eb578063ea0d5dcd1461021657610091565b80630941cb3d146100965780632f865568146100d3578063371fd8e6146100fc57806367c9b017146101255780636f75814014610150575b600080fd5b3480156100a257600080fd5b506100bd60048036038101906100b89190610998565b610255565b6040516100ca91906109de565b60405180910390f35b3480156100df57600080fd5b506100fa60048036038101906100f59190610998565b61026d565b005b34801561010857600080fd5b50610123600480360381019061011e9190610a25565b610453565b005b34801561013157600080fd5b5061013a61052e565b60405161014791906109de565b60405180910390f35b6101586105cd565b005b34801561016657600080fd5b5061016f610668565b60405161017c91906109de565b60405180910390f35b34801561019157600080fd5b506101ac60048036038101906101a79190610998565b61066d565b6040516101b991906109de565b60405180910390f35b3480156101ce57600080fd5b506101e960048036038101906101e49190610a25565b610685565b005b3480156101f757600080fd5b50610200610832565b60405161020d91906109de565b60405180910390f35b34801561022257600080fd5b5061023d60048036038101906102389190610998565b610837565b60405161024c93929190610a52565b60405180910390f35b60026020528060005260406000206000915090505481565b600061027761052e565b905060006305f5e10082600160008673ffffffffffffffffffffffffffffffffffffffff1673ffffffffffffffffffffffffffffffffffffffff168152602001908152602001600020546102cb9190610ab8565b6102d59190610b29565b9050600080600260008673ffffffffffffffffffffffffffffffffffffffff1673ffffffffffffffffffffffffffffffffffffffff168152602001908152602001600020541461036457600260008573ffffffffffffffffffffffffffffffffffffffff1673ffffffffffffffffffffffffffffffffffffffff16815260200190815260200160002054610367565b60015b6064836103749190610ab8565b61037e9190610b29565b9050607881106103c3576040517f08c379a00000000000000000000000000000000000000000000000000000000081526004016103ba90610bb7565b60405180910390fd5b6000600160008673ffffffffffffffffffffffffffffffffffffffff1673ffffffffffffffffffffffffffffffffffffffff168152602001908152602001600020819055506000600260008673ffffffffffffffffffffffffffffffffffffffff1673ffffffffffffffffffffffffffffffffffffffff1681526020019081526020016000208190555050505050565b600260003373ffffffffffffffffffffffffffffffffffffffff1673ffffffffffffffffffffffffffffffffffffffff168152602001908152602001600020548111156104d5576040517f08c379a00000000000000000000000000000000000000000000000000000000081526004016104cc90610c23565b60405180910390fd5b80600260003373ffffffffffffffffffffffffffffffffffffffff1673ffffffffffffffffffffffffffffffffffffffff16815260200190815260200160002060008282546105249190610c43565b9250508190555050565b60008060008054906101000a900473ffffffffffffffffffffffffffffffffffffffff1673ffffffffffffffffffffffffffffffffffffffff1663feaf968c6040518163ffffffff1660e01b815260040160a060405180830381865afa15801561059c573d6000803e3d6000fd5b505050506040513d601f19601f820116820180604052508101906105c09190610d04565b5050509150508091505090565b60003411610610576040517f08c379a000000000000000000000000000000000000000000000000000000000815260040161060790610df1565b60405180910390fd5b34600160003373ffffffffffffffffffffffffffffffffffffffff1673ffffffffffffffffffffffffffffffffffffffff168152602001908152602001600020600082825461065f9190610e11565b92505081905550565b607881565b60016020528060005260406000206000915090505481565b600081116106c8576040517f08c379a00000000000000000000000000000000000000000000000000000000081526004016106bf90610eb7565b60405180910390fd5b60006106d261052e565b905060006305f5e10060966106e79190610ab8565b606483600160003373ffffffffffffffffffffffffffffffffffffffff1673ffffffffffffffffffffffffffffffffffffffff168152602001908152602001600020546107349190610ab8565b61073e9190610ab8565b6107489190610b29565b90508083600260003373ffffffffffffffffffffffffffffffffffffffff1673ffffffffffffffffffffffffffffffffffffffff168152602001908152602001600020546107969190610e11565b11156107d7576040517f08c379a00000000000000000000000000000000000000000000000000000000081526004016107ce90610f23565b60405180910390fd5b82600260003373ffffffffffffffffffffffffffffffffffffffff1673ffffffffffffffffffffffffffffffffffffffff16815260200190815260200160002060008282546108269190610e11565b92505081905550505050565b609681565b60008060008061084561052e565b905060006305f5e10082600160008973ffffffffffffffffffffffffffffffffffffffff1673ffffffffffffffffffffffffffffffffffffffff168152602001908152602001600020546108999190610ab8565b6108a39190610b29565b9050600160008773ffffffffffffffffffffffffffffffffffffffff1673ffffffffffffffffffffffffffffffffffffffff16815260200190815260200160002054600260008873ffffffffffffffffffffffffffffffffffffffff1673ffffffffffffffffffffffffffffffffffffffff168152602001908152602001600020548294509450945050509193909250565b600080fd5b600073ffffffffffffffffffffffffffffffffffffffff82169050919050565b60006109658261093a565b9050919050565b6109758161095a565b811461098057600080fd5b50565b6000813590506109928161096c565b92915050565b6000602082840312156109ae576109ad610935565b5b60006109bc84828501610983565b91505092915050565b6000819050919050565b6109d8816109c5565b82525050565b60006020820190506109f360008301846109cf565b92915050565b610a02816109c5565b8114610a0d57600080fd5b50565b600081359050610a1f816109f9565b92915050565b600060208284031215610a3b57610a3a610935565b5b6000610a4984828501610a10565b91505092915050565b6000606082019050610a6760008301866109cf565b610a7460208301856109cf565b610a8160408301846109cf565b949350505050565b7f4e487b7100000000000000000000000000000000000000000000000000000000600052601160045260246000fd5b6000610ac3826109c5565b9150610ace836109c5565b9250828202610adc816109c5565b91508282048414831517610af357610af2610a89565b5b5092915050565b7f4e487b7100000000000000000000000000000000000000000000000000000000600052601260045260246000fd5b6000610b34826109c5565b9150610b3f836109c5565b925082610b4f57610b4e610afa565b5b828204905092915050565b600082825260208201905092915050565b7f55736572206973206e6f7420756e646572636f6c6c61746572616c697a656400600082015250565b6000610ba1601f83610b5a565b9150610bac82610b6b565b602082019050919050565b60006020820190508181036000830152610bd081610b94565b9050919050565b7f526570617920616d6f756e742065786365656473206465627400000000000000600082015250565b6000610c0d601983610b5a565b9150610c1882610bd7565b602082019050919050565b60006020820190508181036000830152610c3c81610c00565b9050919050565b6000610c4e826109c5565b9150610c59836109c5565b9250828203905081811115610c7157610c70610a89565b5b92915050565b600069ffffffffffffffffffff82169050919050565b610c9681610c77565b8114610ca157600080fd5b50565b600081519050610cb381610c8d565b92915050565b6000819050919050565b610ccc81610cb9565b8114610cd757600080fd5b50565b600081519050610ce981610cc3565b92915050565b600081519050610cfe816109f9565b92915050565b600080600080600060a08688031215610d2057610d1f610935565b5b6000610d2e88828901610ca4565b9550506020610d3f88828901610cda565b9450506040610d5088828901610cef565b9350506060610d6188828901610cef565b9250506080610d7288828901610ca4565b9150509295509295909350565b7f436f6c6c61746572616c206d7573742062652067726561746572207468616e2060008201527f3000000000000000000000000000000000000000000000000000000000000000602082015250565b6000610ddb602183610b5a565b9150610de682610d7f565b604082019050919050565b60006020820190508181036000830152610e0a81610dce565b9050919050565b6000610e1c826109c5565b9150610e27836109c5565b9250828201905080821115610e3f57610e3e610a89565b5b92915050565b7f426f72726f7720616d6f756e74206d757374206265206772656174657220746860008201527f616e203000000000000000000000000000000000000000000000000000000000602082015250565b6000610ea1602483610b5a565b9150610eac82610e45565b604082019050919050565b60006020820190508181036000830152610ed081610e94565b9050919050565b7f45786365656473206d617820626f72726f7761626c6520616d6f756e74000000600082015250565b6000610f0d601d83610b5a565b9150610f1882610ed7565b602082019050919050565b60006020820190508181036000830152610f3c81610f00565b905091905056fea2646970667358221220164b1a813d1717759053436828a2d9e4ceaa63b3f96214e77991705788158a0164736f6c634300081c0033",
  "linkReferences": {},
  "deployedLinkReferences": {}
}